:040000008031132810
:100008007E14803120007F08F7008B1A0B1D0E2804
:100018008031252077082000FF007E1009008031FC
:100028001528F001F101F201F301F401F501A00135
:10003800A101A201A301A401A5017E102000813124
:100048001C297403031D2C281030F6007608F400D0
:100058000310F40C741C332822008C163528220057
:100068008C127408F6000130F636890B3828761C95
:10007800402822008C14422822008C107408F600B4
:100088000230F636890B4528761C4D2822000C15BF
:100098004F2822000C117408F6000330F636890B3D
:1000A8005228761C5A2822008E165C2822008E12AE
:1000B8000B1120002808950008007308031D6B2801
:1000C80022008E120C118C108C12F301F30A7308A3
:1000D80003198E28003020000E1801308031CA2004
:1000E800803178082000A9007908AA002A0E0F3963
:1000F800A900AA012908A0002A08A10000302102AD
:1001080005300319200203188C2822008C148E282D
:1001180022008C10750803190800F301080022005A
:100128008C01193021008C00113023008C00220032
:100138008D01F03021008D00303023008D00240027
:100148008D0122008E01DF3021008E00CF30230088
:100158008E0024008E012100951708008131292185
:100168008031803193208031813123218031803169
:10017800DF2080318131132180318031FD208031B1
:100188008031EE208031813109210800FB007B0895
:10019800FA00FA0DFA0D21001D087A0683397A064D
:1001A8009D001D1421009D149D18D8281C08F900D5
:1001B8001B08F80008002000980199010B309700EF
:1001C800DC3096001708A7001608A6001010813129
:1001D8003221080021001508C039173895000C3065
:1001E800200095000C30F8007808A8000B118B1639
:1001F800080020009C019E019D019F01FF309B008B
:100208009A01901081312F2108009C30250093001D
:100218007F309200C0309100FC309E05080001300C
:1002280021009D0040309E009F019B019C01080019
:100238008031B22081318031612081311F291C3009
:100248002E009100163092000800383021009900E5
:100258009A019801080020009C1708002000181433
:0202680008008C
:020000040001F9
:06000E00BC3FFF37AE0EFF
:00000001FF
